:1000000000000320D101000091A7000049A70000D3
:1000100049A7000049A7000049A7000049A7000020
:1000200049A7000049A7000049A7000091A70000C8
:1000300091A7000049A700008DC6000091C70000ED
:1000400091A7000091A7000091A7000091A70000D0
:1000500091A7000091A7000091A7000091A70000C0
:1000600091A7000091A7000091A7000091A70000B0
:1000700091A7000091A7000091A7000091A70000A0
:1000800091A7000091A7000091A7000091A7000090
:1000900091A7000091A7000091A7000091A7000080
:1000A000E59D0000F19D000091A7000091A70000D0
:1000B00091A7000091A7000091A70000B9C8000017
:1000C00091A70000E5C9000091A7000011CB000036
:1000D00091A7000009CC000091A7000091A70000A3
:1000E00091A7000091A7000091A7000091A7000030
:1000F00091A7000091A7000091A7000091A7000020
:10010000A9A00000BDA00000D1A00000E5A0000053
:1001100091A7000091B1000091A7000091A70000F5
:1001200091A7000091A7000091A7000091A70000EF
:1001300091A7000091A7000091A7000091A70000DF
:1001400091A7000091A7000001CD000091A7000039
:1001500091A7000091A7000091A7000091A70000BF
:1001600091A7000091A70000FD9D000091A700004D
:1001700091A7000091A7000091A7000091A700009F
:1001800091A7000091A7000091A7000091A700008F
:1001900091A7000091A70000F9CD000091A70000F1
:1001A00091A7000091A7000091A70000099E000000
:1001B00091A7000091A7000091A7000091A700005F
:1001C00091A7000091A7000091A7000091A700004F
:1001D0005C4B4CF2205210B51A804DF628121A8052
:1001E00000BF00BF0AF0D8FA574B4FF030621A60D8
:1001F000564A9A60564ADA60564B4FF470021A60BB
:10020000554B564A1A60564A136813F4807304D14A
:1002100054490B604FF4A8531360534B1A781107DD
:1002200003D51A7842F008021A70504B5049AA229E
:100230001A70504A504B8B4204D252F8040F43F8C4
:10024000040BF8E74D4B4E4900228B4202D243F893
:10025000042BFAE74B494C4A002352F8230041F89B
:1002600023000133742BF8D1484B494A802103F80D
:10027000011B9342FBD1474B424A1A60464B8A22EC
:100280001A70A3F5805324225A70A0221A709A790A
:100290009207FCD59A79D406FCD4404A937903F0AE
:1002A0000C03082BFAD13E4B60221A7002331A78E5
:1002B000802AFCD1394B01221A715D225A719A7938
:1002C0009006FCD59979354A4906FBD5354B364918
:1002D00019600021596020231370937903F00C03F7
:1002E0000C2BFAD1314B324A1A60324B324A1A6027
:1002F00000225A60072243F8042C304AC3F80C2D20
:1003000062B60AF0A5FD174B1B68DA0705D52C4825
:100310000AF0FCFC2B4B2C4A1A602C4B1B785B061A
:1003200009D5284C284B22689A4204D124480AF067
:10033000EDFC002323600DF09FFA0AF033FA0AF077
:1003400061F9FEE70E20054030800440823F040042
:100350000100002B88ED00E0002008E0030000858C
:1003600010D0034014D0034002D0074000E0074003
:10037000C82FFF1F80310100400CFF1FC82FFF1F37
:100380009042FF1F0002FF1F0000000000E400E099
:1003900064E400E008ED00E0005006400040064044
:1003A00001E007404480044000000602048004404D
:1003B000C010070014E000E01FBF02000000202072
:1003C000D3936B601CE00340A5C3945A00F0074030
:1003D000FFFFFFFFFFFFFFFFFFFFFFFFFFFFFFFF2D
:1003E000FFFFFFFFFFFFFFFFFFFFFFFFFFFFFFFF1D
:1003F000FFFFFFFFFFFFFFFFFFFFFFFFFFFFFFFF0D
:10040000FFFFFFFFFFFFFFFFFFFFFFFFDEF9FFFF23
:1004100010B5054C237833B9044B13B10448AFF33E
:1004200000800123237010BDC82FFF1F00000000B3
:100430007C310100084B10B51BB108490848AFF3E7
:1004400000800848036803B910BD074B002BFBD0A0
:10045000BDE81040184700BF00000000CC2FFF1F70
:100460007C310100C82FFF1F000000000B68054A07
:100470000549A3F10103B3FA83F35B0981F8103254
:1004800053747047FC31FF1FE42FFF1F012A08BF80
:1004900001600020704700BF0849094B0A6801321B
:1004A00083FB0203A3EBE27303EB4303A2EB4303DF
:1004B0000B6003B17047034807F06EBFF831FF1FB0
:1004C000ABAAAA2AFC31FF1F08B5034807F022F99E
:1004D000024B00221A6008BDFC31FF1FF831FF1FDC
:1004E00012780978014807F075BF00BFE42FFF1F9D
:1004F000014807F073BF00BFE42FFF1F014807F05A
:10050000E9BF00BFE42FFF1F014808F05FB800BF3C
:10051000E42FFF1F014808F0CFB800BFE42FFF1FF2
:100520000149024808F044B9440CFF1FE42FFF1FA3
:100530000149024808F058B9440CFF1FE42FFF1F7F
:10054000014808F06BB900BFE42FFF1F014808F015
:1005500087B900BFE42FFF1F014808F0A1B900BF11
:10056000E42FFF1F014808F0B3B900BFE42FFF1FBD
:10057000014807F01DBF00BFE42FFF1F014807F02F
:100580001FBF00BFE42FFF1F014808F0B9B900BF2B
:10059000E42FFF1F12780968014808F0C5B900BFB1
:1005A000E42FFF1F014808F0CFB900BFE42FFF1F61
:1005B0000968024A024808F0B1BA00BFE42FFF1FE1
:1005C000E836FF1F0968024A024808F095BA00BFE2
:1005D000E42FFF1FE836FF1F0968024A024808F0AF
:1005E000A5BA00BFE42FFF1FE836FF1F014808F03F
:1005F00033BA00BFE42FFF1F014808F047BA00BF1D
:10060000E42FFF1F014808F0FFB900BFE42FFF1FD0
:10061000014808F00DBA00BFE42FFF1F014808F0A1
:10062000E7B900BFE42FFF1F014808F0E7B900BF9A
:10063000E42FFF1F014808F043BA00BFE42FFF1F5B
:10064000014808F043BA00BFE42FFF1F09680148C2
:1006500007F06CB8FC31FF1F014807F0A1B800BFDC
:10066000FC31FF1F0968014808F03ABAE42FFF1F68
:100670000968014808F03CBAE42FFF1F09680148E7
:1006800008F038BAE42FFF1F10B50446406B08B1DC
:100690000AF0F4F804F1080009F0E4FC204609F03F
:1006A000E1FC204610BD00BF012A08BF0160002008
:1006B000704700BF012A08BF01600020704700BFDB
:1006C000012A08BF01600020704700BF012A08BF4F
:1006D00001600020704700BF012A08BF01600020B0
:1006E000704700BF012A08BF01600020704700BFAB
:1006F000012A08BF01600020704700BF012A08BF1F
:1007000001600020704700BF012A08BF016000207F
:10071000704700BF012A08BF01600020704700BF7A
:10072000012A08BF01600020704700BF012A08BFEE
:1007300001600020704700BF012A08BF016000204F
:10074000704700BF012A08BF01600020704700BF4A
:10075000012A08BF01600020704700BF012A08BFBE
:1007600001600020704700BF012A08BF016000201F
:10077000704700BF012A08BF01600020704700BF1A
:10078000012A08BF01600020704700BF012A08BF8E
:1007900001600020704700BF012A08BF01600020EF
:1007A000704700BF012A08BF01600020704700BFEA
:1007B000012A08BF01600020704700BF012A08BF5E
:1007C00001600020704700BF012A08BF01600020BF
:1007D000704700BF012A08BF01600020704700BFBA
:1007E000012A08BF01600020704700BF012A08BF2E
:1007F00001600020704700BF012A08BF016000208F
:10080000704700BF012A08BF01600020704700BF89
:10081000012A08BF01600020704700BF012A08BFFD
:1008200001600020704700BFD0F8A0342DE9F047E8
:10083000074623B100F59361084603229847D7F88D
:10084000903423B107F59161084603229847D7F801
:10085000803423B107F58F61084603229847D7F803
:10086000703423B107F58D61084603229847D7F805
:10087000603423B107F58B61084603229847D7F807
:10088000503423B107F58961084603229847D7F809
:10089000403423B107F58761084603229847D7F80B
:1008A000303423B107F58561084603229847D7F80D
:1008B000203423B107F58361084603229847D7F80F
:1008C000103423B107F58161084603229847D7F811
:1008D000003423B107F57E71084603229847D7F804
:1008E000F03323B107F57A71084603229847D7F809
:1008F000E03323B107F57671084603229847D7F80D
:10090000D03323B107F57271084603229847D7F810
:10091000C03323B107F56E71084603229847D7F814
:10092000B03323B107F56A71084603229847D7F818
:10093000A03323B107F56671084603229847D7F81C
:10094000903323B107F56271084603229847D7F820
:10095000803323B107F55E71084603229847D7F824
:10096000703323B107F55A71084603229847D7F828
:10097000603323B107F55671084603229847D7F82C
:10098000503323B107F55271084603229847D7F830
:10099000403323B107F54E71084603229847D7F834
:1009A000303323B107F54A71084603229847D7F838
:1009B000203323B107F54671084603229847D7F83C
:1009C000103323B107F54271084603229847D7F840
:1009D000003323B107F53E71084603229847D7F844
:1009E000F03223B107F53A71084603229847D7F849
:1009F000E03223B107F53671084603229847D7F84D
:100A0000D03223B107F53271084603229847D7F850
:100A1000C03223B107F52E71084603229847D7F854
:100A2000B03223B107F52A71084603229847D7F858
:100A3000A03223B107F52671084603229847D7F85C
:100A4000403223B107F50E71084603229847D7F8C4
:100A5000303223B107F50A71084603229847D7F8C8
:100A6000203223B107F50671084603229847D7F8CC
:100A7000103223B107F50271084603229847D7F8D0
:100A8000003223B107F5FC71084603229847D7F8D6
:100A9000F03123B107F5F471084603229847D7F8DF
:100AA000E03123B107F5EC71084603229847D7F8E7
:100AB000D03123B107F5E471084603229847D7F8EF
:100AC000C03123B107F5DC71084603229847D7F8F7
:100AD000B03123B107F5D471084603229847D7F8FF
:100AE0009861D7F89C914E453FD006F13408F06AE2
:100AF000404501D009F0C2FE346A756AAC4209D0A3
:100B0000A368214620460322103403B19847A5422A
:100B1000F6D1356A15B1284609F0B0FE706908B102
:100B200009F0ACFE58F8345CD6F804A055450FD057
:100B300005F1080454F8080CA04205F1180504F169
:100B4000180401D009F09AFEAA45F3D158F834AC44
:100B5000BAF1000F02D0504609F090FE4836B14578
:100B600008F14808C3D1D7F89891B9F1000F02D025
:100B7000484609F083FED7F88C0108B109F07EFEE3
:100B800007F58C74383CA36A04F12001032208465F
:100B900003B19847A36904F110010322084603B189
:100BA0009847A36803222146204603B19847BC42D8
:100BB000E8D13846BDE8F0870868B0F1004F08B5C5
:100BC0001BD290420ED9520090420BD2B2F1004F8C
:100BD0000DD36FF000430B604FF00040BDE80840BC
:100BE00009F04ABE0130BDE8084009F045BE0A6080
:100BF000501CBDE8084009F03FBE014803F09EFECE
:100C0000F81F010070B5054682B001B3541A0F2CCD
:100C10000E4601940AD82B68012C184613D064B9EB
:100C2000019A6A600021995402B070BD002201A9A6
:100C3000FFF7C2FF019B2860AB602246314609F0F6
:100C4000E9FC2B68ECE732781A702B68E8E712B100
:100C5000024803F08DFE01920368E1E710200100D5
:100C6000884233D02DE9F04180464E6858F8083B61
:100C7000984514BF82680F22B24282B00F460546E3
:100C80000ED3184636B1012E39681BD0324609F012
:100C9000C1FC28686E600022825502B0BDE8F08178
:100CA00002A941F8046DFFF787FF04462868404514
:100CB00001D009F0E3FD019A2C602046AA60002EC5
:100CC000E8D0E0E70A7802702868E3E7704700BFE1
:100CD0002DE9F0430E2187B0C348C44D0BF000FB53
:100CE00002ACC34809F008FA94E8030005F54E7316
:100CF0008DE8030093E8030084E803009DE8030007
:100D0000D5F84073BB4A049783E80300D5F8441331
:100D1000B94BC5F840236E460591C5F844331FB161
:100D2000032221462046B84794E80300B34BD5F888
:100D30000073B34A049786E8030093E8030084E84D
:100D4000030096E80300C5F80023D5F804230592B4
:100D5000AC4AC5F8042383E803001FB103222146EF
:100D60002046B84794E80300A74BD5F81073A74A6C
:100D7000049786E8030093E8030084E8030096E8FC
:100D80000300C5F81023D5F814230592A04AC5F82E
:100D9000142383E803001FB1032221462046B847ED
:100DA00094E803009B4BD5F820739B4A049786E890
:100DB000030093E8030084E8030096E80300C5F805
:100DC0002023D5F824230592944AC5F8242383E8E8
:100DD00003001FB1032221462046B84794E80300D0
:100DE0008F4BD5F830738F4A049786E8030093E859
:100DF000030084E8030096E80300C5F83023D5F823
:100E000034230592884AC5F8342383E803001FB1D0
:100E1000032221462046B84794E80300834BD5F8C7
:100E20005073834A049786E8030093E8030084E83C
:100E3000030096E80300C5F85023D5F85423059223
:100E40007C4AC5F8542383E803001FB103222146DE
:100E50002046B84794E80300774BD5F86073774A8B
:100E6000049786E8030093E8030084E8030096E80B
:100E70000300C5F86023D5F864230592704AC5F8CD
:100E8000642383E803001FB1032221462046B847AC
:100E900094E803006B4BD5F8C0726B4A049786E860
:100EA000030093E8030084E8030096E80300C5F814
:100EB000C022D5F8C4220592644AC5F8C42283E84A
:100EC00003001FB1032221462046B84794E80300DF
:100ED0005F4BD5F8D0725F4A049786E8030093E829
:100EE000030084E8030096E80300C5F8D022D5F893
:100EF000D4220592584AC5F8D42283E803001FB1D2
:100F0000032221462046B84794E80300534BD5F806
:100F1000E072534A049786E8030093E8030084E8EC
:100F2000030096E80300C5F8E022D5F8E422059214
:100F30004C4AC5F8E42283E803001FB1032221468E
:100F40002046B84794E80300474BD5F8F072474A6B
:100F5000049786E8030093E8030084E8030096E81A
:100F60000300C5F8F022D5F8F4220592404AC5F8EE
:100F7000F42283E803001FB1032221462046B8472C
:100F800094E803003B4BD5F8A0723B4A049786E8EF
:100F9000030093E8030084E8030096E80300C5F823
:100FA000A022D5F8A4220592344AC5F8A42283E8E9
:100FB00003001FB1032221462046B84794E80300EE
:100FC0002F4BD5F8B0722F4A049786E8030093E8B8
:100FD000030084E8030096E80300C5F8B022D5F8C2
:100FE000B422059250E000BFD82101004032FF1F1B
:100FF0002825FF1FB5060000E10400003835FF1F5B
:10100000C1060000F10400004835FF1FCD060000B6
:10101000FD0400005835FF1FD90600000905000037
:101020006835FF1FE5060000150500008835FF1F25
:10103000F1060000210500009835FF1FFD060000A5
:1010400031050000F834FF1F0907000041050000CA
:101050000835FF1F150700004D0500001835FF1F5C
:1010600021070000590500002835FF1F2D0700004B
:1010700065050000D834FF1F390700007105000026
:10108000E834FF1F45070000C34AC5F8B42283E8CF
:1010900003001FB1032221462046B84794E803000D
:1010A000BE4BD5F87073BE4A049786E8030093E8F8
:1010B000030084E8030096E80300C5F87023D5F820
:1010C00074230592B74AC5F8742383E803001FB15F
:1010D000032221462046B84794E80300B24BD5F8D6
:1010E0008073B24A049786E8030093E8030084E81B
:1010F000030096E80300C5F88023D5F88423059201
:10110000AB4AC5F8842383E803001FB103222146BC
:101110002046B84794E80300A64BD5F89073A64A3A
:10112000049786E8030093E8030084E8030096E848
:101130000300C5F89023D5F8942305929F4AC5F87B
:10114000942383E803001FB1032221462046B847B9
:1011500094E803009A4BD5F8B0739A4A049786E84E
:10116000030093E8030084E8030096E80300C5F851
:10117000B023D5F8B4230592934AC5F8B42383E885
:1011800003001FB1032221462046B84794E803001C
:101190008E4BD5F8A0738E4A049786E8030093E837
:1011A000030084E8030096E80300C5F8A023D5F8FF
:1011B000A4230592874AC5F8A42383E803001FB13E
:1011C000032221462046B84794E80300824BD5F815
:1011D000C073824A049786E8030093E8030084E81A
:1011E000030096E80300C5F8C023D5F8C423059290
:1011F0007B4AC5F8C42383E803001FB103222146BC
:101200002046B84794E80300764BD5F81074764A28
:10121000049786E8030093E8030084E8030096E857
:101220000300C5F81024D5F8142405926F4AC5F8B8
:10123000142483E803001FB1032221462046B84747
:1012400094E803006A4BD5F820746A4A049786E84C
:10125000030093E8030084E8030096E80300C5F860
:101260002024D5F824240592634AC5F8242483E871
:1012700003001FB1032221462046B84794E803002B
:101280005E4BD5F8F0735E4A049786E8030093E856
:10129000030084E8030096E80300C5F8F023D5F8BE
:1012A000F4230592574AC5F8F42383E803001FB1DD
:1012B000032221462046B84794E80300524BD5F854
:1012C0000074524A049786E8030093E8030084E818
:1012D000030096E80300C5F80024D5F8042405921D
:1012E0004B4AC5F8042483E803001FB103222146BA
:1012F0002046B84794E80300464BD5F8D073464AD9
:10130000049786E8030093E8030084E8030096E866
:101310000300C5F8D023D5F8D42305923F4AC5F879
:10132000D42383E803001FB1032221462046B84797
:1013300094E803003A4BD5F8E0733A4A049786E8FC
:10134000030093E8030084E8030096E80300C5F86F
:10135000E023D5F8E4230592334AC5F8E42383E873
:1013600003001FB1032221462046B84794E803003A
:101370002E4BD5F830742E4A049786E8030093E884
:10138000030084E8030096E80300C5F83024D5F88C
:10139000342405924EE000BF7D050000A835FF1FF4
:1013A0005107000089050000B835FF1F5D070000E8
:1013B00095050000C835FF1F69070000A50500005E
:1013C000E835FF1F75070000B1050000D835FF1F85
:1013D00081070000C5050000F835FF1F8D070000DC
:1013E000D90500004836FF1F99070000ED050000F1
:1013F0005836FF1FA5070000F90500002836FF1F1B
:10140000B1070000050600003836FF1FBD070000C9
:10141000110600000836FF1FC90700001D06000066
:101420001836FF1FD5070000290600006836FF1F89
:10143000E1070000994AC5F8342483E803001FB18E
:10144000032221462046B84794E80300944BD5F880
:101450004074944A049786E8030093E8030084E804
:10146000030096E80300C5F84024D5F8442405920B
:101470008D4AC5F8442483E803001FB103222146A6
:101480002046B84794E80300884B894FD5F850941C
:10149000C5F8787286E8030093E8030084E8030047
:1014A00096E80300BA1E83E80300FB1EC5F88422F9
:1014B000C5F888327A1C7B1EC5F88C22C5F890329C
:1014C0007C4A7D4BC5F8742207F10908D5F85424ED
:1014D000C5F85034794BCDF81090C5F8808205924C
:1014E000C5F85434B9F1000F03D003222146204639
:1014F000C84794E80300724BD5F86094CDF810907B
:1015000086E8030093E8030084E8030096E80300FC
:10151000D5F86424059283E803006A496A4BC5F84C
:101520006014C5F86434B9F1000F03D003222146DA
:101530002046C84794E80300644BD5F87094CDF872
:10154000109086E8030093E8030084E8030096E81F
:101550000300D5F87424059283E803005C495D4BD1
:10156000C5F87014C5F87434B9F1000F03D0032224
:1015700021462046C84794E80300574BD5F880948D
:10158000CDF8109086E8030093E8030084E8030098
:1015900096E80300D5F88424059283E803004F49B8
:1015A0004F4BC5F88014C5F88434B9F1000F03D04F
:1015B000032221462046C84794E80300494BD5F84A
:1015C0009094CDF8109086E8030093E8030084E837
:1015D000030096E80300D5F89424059283E80300FD
:1015E0004149424BC5F89014C5F89434B9F1000F45
:1015F00003D0032221462046C84794E803003C4B11
:10160000D5F8A0943B4ACDF8109086E8030093E803
:10161000030084E8030096E80300C5F8A024D5F889
:10162000A4240592344AC5F8A42483E80300B9F140
:10163000000F03D0032221462046C8472F4C3048D4
:10164000304E04F14003C5F8943205F087FE1421B2
:101650002D480AF045FE2D4808F04EFD2C4A2D4B32
:10166000DFF8BCE02C4911604FF4FA70E362C5F872
:101670007C32C6F800E0C4F81C80A76209F096FB33
:101680001F4803F075FF122124480AF029FE1F4865
:1016900008F032FD07B0BDE8F08300BF350600005A
:1016A0007836FF1FED070000410600008836FF1F57
:1016B000EB2FFF1F1032FF1FF90700004D0600003F
:1016C0009836FF1F0508000059060000A836FF1FC6
:1016D0001108000065060000B836FF1F1D08000055
:1016E00071060000C836FF1FA90600007D06000035
:1016F000D836FF1F8D0400006D040000FC31FF1F71
:101700004032FF1F803DFF1FE82101002825FF1FF9
:10171000C83DFF1FF02FFF1FC90400000022010079
:101720009904000008B500200AF056FB0248BDE805
:10173000084005F07DB800BF4032FF1F2DE9F04F93
:1017400005684468634B621B8046D01003FB00F3BE
:1017500083B00F46002B00F0A38159008B4240F26A
:10176000BF815D4B00936FF0270009F085F8D8F832
:101770000050D8F804408246621B1AEB020600F0C3
:10178000A08097E81002554BC4EB090B4FEAEB051C
:1017900003FB05F500234AF802307360B3604DB1D6
:1017A0004F4B9D4200F2A381584609F065F897E837
:1017B0001002054605EB0B034C453560B3607560C0
:1017C00016D005F1080B5B46B3461E4645B146F8F8
:1017D000086C2368626819461A442846FFF712FA13
:1017E0001834A14505F1180506F11806EED15E463C
:1017F0007969BC69FB683A69F360641A0023326155
:10180000A21075607361B361F36100F06681B2F19B
:10181000804F80F06C81204609F02EF8BA69796912
:10182000C1EB020903464FEAA9021C44F46173614B
:10183000B361002A40F038813D6AD7F824B04B44A8
:10184000C5EB0B0900225FEA2914B36132627262B0
:10185000B2620AD0B4F1805F80F04981484609F055
:101860000BF83D6AD7F824B0044604EB09035D4544
:101870003462B362746213D04FF000095CB1C4F8F3
:101880000890AB683BB10222294620469847EB6896
:10189000E360AB68A3601035AB4504F11004EDD1F3
:1018A000F96A3A6B746206F13403F3620A4406F192
:1018B0002C00FFF7A7F97B6CD8F80050D8F804404B
:1018C0007364A54200F0058148350AF148030022FF
:1018D00009E000BF398EE338E3388E03ABAAAAAA29
:1018E000AAAAAA0A0D46482B79D043F8442C43F8FB
:1018F000402C43F8482C55F8481C43F8481C55F830
:10190000441C45F8482C53F8440C43F8441C55F843
:10191000401C45F8440C53F8400C43F8401C55F863
:10192000381C45F8400C55F83C0C43F8302C43F873
:101930002C2C43F8342C43F8381C55F8341C43F84D
:10194000341C43F83C0C45F8342C55F8300C53F853
:10195000301C43F8300C45F8301C55F82C0C53F86B
:101960002C1C43F82C0C45F82C1C43F8282C43F86D
:10197000242C43F8202C55F8281C43F8281C45F843
:10198000282C55F8240C53F8241C43F8240C45F853
:10199000241C55F8200C53F8201C43F8200CA3F10C
:1019A000140645F8201C43F81C6C55F81C0CA5F1D6
:1019B000140188427ED055F8146C43F8146C43F837
:1019C0001C0C55F8186C55F8040C43F8186C45F8C5
:1019D0001C1C45F8182C05F8142C43F8040CAC42D8
:1019E00005F1480103F148037FF47CAFD8F80060AB
:1019F000D8F804500193AE423FD006F13407A9460F
:101A0000F06AB84201D008F039FF346A756AAC4216
:101A100009D0A3681BB10322214620469847103401
:101A2000A542F6D1356A15B1284608F027FF70693E
:101A300008B108F023FF57F8345CD6F804B05D45D0
:101A40000ED005F1080454F8080CA04201D008F0AB
:101A500015FF1835AB4504F11804F4D157F834BC20
:101A6000BBF1000F02D0584608F008FF4836B145D8
:101A700007F14807C4D1D8F8005015B1284608F03E
:101A8000FDFE009BC8F800A003EBC3030AEBC303F1
:101A9000C8F80830019BC8F8043003B0BDE8F08FE7
:101AA00001234820009360E618464A460CF058FA95
:101AB0000346C1E6D1F800C0D1F804E08F68C868D9
:101AC00043F8080C43F814CC43F810EC43F80C7CB2
:101AD00077E70AF148030193CFE71346A146A4E64E
:101AE0000848814205D900906FF027003DE602F0DA
:101AF0001BFF11B900918A463FE601EB0313D800A2
:101B0000009132E6E3388E032DE9F047836846689A
:101B10009E4200F0A5800746002E00F097804B689B
:101B20000D68524A5D1BEC10002302FB04F488464A
:101B300033607360B3603CB14D4B9C4200F29480C3
:101B4000284608F099FE04462544B5603460746068
:101B500098E82004554512D004F1080944B149F829
:101B6000089C2B686A6819461A442046FFF74AF811
:101B70001835AA4504F1180409F11809EED1D8F86E
:101B80001030D8F80C2074603361D8F81830D8F8C9
:101B90001440F2601C1B00237361B361F361A31056
:101BA00006D0B3F1804F5FD2204608F065FE0346B1
:101BB0001C44F4617361B361D8F81410D8F818406C
:101BC000641AA20846D11C44B461D8F82430D8F86D
:101BD00020505D1B00222C1132627262B26206D06C
:101BE000B4F1805F40D2284608F046FE0446254402
:101BF000B56234627462D8F82050D8F824904D450C
:101C000013D04FF0000A5CB1C4F808A0AB683BB138
:101C10000222294620469847EB68E360AB68A36040
:101C20001035A94504F11004EDD106F13403F36237
:101C3000D8F82C10D8F83020746206F12C000A4431
:101C4000FEF7E0FFD8F8443073647E6848367E6063
:101C5000BDE8F087184622460CF082F90346B2E749
:101C6000FFF76CFDBDE8F08702F05EFEABAAAAAA02
:101C7000AAAAAA0A2DE9F84F90E808040546544A92
:101C8000C3EB0A00C71002FB07F28846002A71D096
:101C90005700BA4240F28E806FF00F07384608F0C6
:101CA000EBFD95E80804064600EB070B00F118046D
:101CB000C3EB0A00321817D0434602F1080153F86B
:101CC000087B31509F4266D0D8F8081017609160A9
:101CD000002088F80800C8F8003095E80804D8F813
:101CE00004105160C8F80400534537D003F10802CE
:101CF00006F10801374600248FB141F8081C52F85C
:101D0000080C824238D0D3F808E041F8080CC7F834
:101D100008E05868786042F8082C5C601C72183340
:101D20009A4507F1180702F1180201F11801E3D1F1
:101D300095E80006D14507F118040FD009F108080D
:101D400058F8080C404509F1180908F1180801D0A5
:101D500008F094FDD145F3D1D5F800A0BAF1000FF9
:101D600002D0504608F08AFD2E606C60C5F808B0BD
:101D7000BDE8F88F182791E7D2F80080D2F804E088
:101D80009068D2F80C90C1F80C90C1F80080C1F8AE
:101D900004E08860BDE7D3F80090D3F804C0D3F81E
:101DA00008E0D8685061C2F80890C2F80CC0C2F8C8
:101DB00010E08DE707498F423FF66EAF1FB9BB4673
:101DC0003E46182476E707EB8207FF0066E700BF70
:101DD000ABAAAAAAAAAAAA0AF8B543688568AB4220
:101DE00016D004468BB103F108051D600A4651F870
:101DF000080B88420FD0186090689860506858604F
:101E00000020107263681160506018336360F8BD81
:101E1000FFF730FFF8BDD1F800E04F688E68C86862
:101E20005861C3F808E0DF601E61E7E72DE9F84379
:101E3000D0F800808368551AC8EB0303AE10B6EBE8
:101E4000A30F044689461BD840681746C8EB00021A
:101E500093109E420BD99144002B38D10346C9EB15
:101E60000705AA0829D11D446560BDE8F8831EB1A5
:101E70002A4640460CF074F845446560BDE8F88396
:101E800037464EB1B6F1804F26D2284608F0F4FC12
:101E9000D4F8008007465EB9B8F1000F02D0404682
:101EA00008F0ECFC3D446560A5602760BDE8F88360
:101EB00049462A4608F0AEFBEEE72A461846494650
:101EC0000CF04EF803461D446560BDE8F8834046BB
:101ED0000CF046F86368C2E702F026FD2DE9F04FEA
:101EE000A34AADF5617D0023C36003614361836153
:101EF000C361036203630364036503660367C0F899
:101F00008030C0F89030C0F8A030C0F8B030C0F8D1
:101F1000C030111FD0AC089309930A930B930D9313
:101F20000E930F9310931193129314938DF85430D2
:101F30001993054615ABCEA81393CE94FEF762FE17
:101F4000CE9A139BA24201F0A48515A98B4201F001
:101F50000786CF98D09913921490159A1591002B5B
:101F600001F00386CE93D0920022CF921A70CE98C1
:101F7000A04201D008F082FC7E4ACE94511FCEA828
:101F8000FEF740FE08A8CEA9FFF726FFCE98A04294
:101F900001D008F073FC784ACE94511FCEA8FEF70A
:101FA00031FE08A8CEA9FFF717FFCE98A04201D0B6
:101FB00008F064FC714ACE94A2F10A01CEA8FEF7A3
:101FC00021FE08A8CEA9FFF707FFCE98A04201D0B6
:101FD00008F054FC6A4ACE94511FCEA8FEF712FEB8
:101FE00008A8CEA9FFF7F8FECE98A04201D008F0CD
:101FF00045FC644ACE94A2F10D01CEA8FEF702FE84
:1020000008A8CEA9FFF7E8FECE98A04201D008F0BC
:1020100035FC5D4ACE940023111F1A931B931C9329
:102020001D931F932093219322932393249326930C
:102030008DF89C302B93CEA827AB2593FEF7E2FDBD
:10204000CE9A259BA24201F01D8527A98B4201F063
:102050009B85CF98D09925922690279A2791002B7F
:1020600001F09785CE93D0920022CF921A70CE982D
:10207000A04201D008F002FC444ACE94511ECEA8E2
:10208000FEF7C0FD1AA8CEA9FFF7A6FECE98A04283
:1020900001D008F0F3FB3E4ACE94511ECEA8FEF7C5
:1020A000B1FD1AA8CEA9FFF797FECE98A04201D0A5
:1020B00008F0E4FB374ACE94511ECEA8FEF7A2FDED
:1020C0001AA8CEA9FFF788FECE98A04201D008F04A
:1020D000D5FB314ACE94511ECEA8FEF793FD1AA827
:1020E000CEA9FFF779FECE98A04201D008F0C6FB3A
:1020F0002A4ACE94511ECEA8FEF784FD1AA8CEA976
:10210000FFF76AFECE98A04201D008F0B7FB244A40
:10211000CE94511ECEA8FEF775FD1AA8CEA9FFF7E2
:102120005BFECE98A04201D008F0A8FB1D4ACE94D9
:102130000023911F2C932D932E932F933193329341
:10214000339334933593369338938DF8E4303D933D
:10215000CEA839AB3793FEF755FDCE9A379BA242F6
:1021600001F0A58439A98B4201F0F0841CE000BF86
:10217000182201002122010029220100362201003B
:102180003D2201004D22010054220100592201008C
:102190005D22010061220100652201006922010027
:1021A0006D22010076220100CF98D09937923890A5
:1021B000399A3991002B01F0CE84CE93D09200222F
:1021C000CF921A70CE98A04201D008F057FBA14AD6
:1021D000CE94111FCEA8FEF715FD2CA8CEA9FFF7AF
:1021E000FBFDCE98A04201D008F048FB9A4ACE945D
:1021F000111FCEA8FEF706FD2CA8CEA9FFF7ECFD17
:10220000CE98A04201D008F039FB944ACE94111F19
:10221000CEA8FEF7F7FC2CA8CEA9FFF7DDFDCE98DF
:10222000A04201D008F02AFB8D4ACE94111FCEA8FF
:10223000FEF7E8FC2CA8CEA9FFF7CEFDCE98A04271
:1022400001D008F01BFB874ACE940023511F3E9318
:102250003F934093419343934493459346934793CD
:1022600048934A938DF82C314F93CEA84BAB4993AA
:10227000FEF7C8FCCE9A499BA24201F011844BA9FB
:102280008B4201F0A984CF98D09949924A904B9AF9
:102290004B91002B01F0A584CE93D0920022CF92D7
:1022A0001A70CE98A04201D008F0E8FA6E4ACE9497
:1022B000911FCEA8FEF7A6FC3EA8CEA9FFF78CFD85
:1022C000CE98A04201D008F0D9FA684ACE94D11E27
:1022D000CEA8FEF797FC3EA8CEA9FFF77DFDCE98CD
:1022E000A04201D008F0CAFA614ACE940023A2F1BC
:1022F0000A01509351935293539355935693579386
:10230000589359935A935C938DF874316193CEA886
:102310005DAB5B93FEF776FCCE9A5B9BA24201F02D
:10232000F0835DA98B4201F0F383CF98D0995B9243
:102330005C905D9A5D91002B01F0EF83CE93D0927B
:102340000022CF921A70CE98A04201D008F096FADF
:10235000484ACE94A2F10801CEA8FEF753FC50A83B
:10236000CEA9FFF739FDCE98A04201D008F086FA39
:10237000414ACE94A2F10801CEA8FEF743FC50A832
:10238000CEA9FFF729FDCE98A04201D008F076FA39
:102390003A4ACE940023D11F62936393649365936A
:1023A0006793689369936A936B936C936E938DF8BC
:1023B000BC317393CEA86FAB6D936E6AFEF722FCAF
:1023C000CE9A6D9BA24201F095836FA98B4201F0DA
:1023D0000D84CF98D0996D926E906F9A6F91002B6B
:1023E00001F00984CE93D0920022CF921A70CE9839
:1023F000A04201D008F042FA214A73960023A2F1CC
:102400000A01749375937693779379937A937B9378
:102410007C937D937E9380938DF804328593CEA830
:1024200081AB7F93CE94FEF7EDFBCE9A7F9BA242C9
:1024300001F0598381A98B4201F07483CF98D09920
:102440007F928090819A8191002B01F07083CE93CE
:10245000D09217E07C220100842201008C2201002E
:102460009422010029220100A2220100C3220100BE
:10247000A2220100AC220100B8220100C322010007
:10248000362201000022CF921A70CE98A04201D0CD
:1024900008F0F4F9A74ACE94911FCEA8FEF7B2FB3C
:1024A00074A8CEA9FFF798FCCE98A04201D008F0FE
:1024B000E5F9A14ACE94511FCEA8FEF7A3FB74A85C
:1024C000CEA9FFF789FCCE98A04201D008F0D6F93A
:1024D0009A4ACE94111FCEA8FEF794FB74A8CEA9F9
:1024E000FFF77AFCCE98A04201D008F0C7F9944AD1
:1024F000CE94111FCEA8FEF785FB74A8CEA9FFF7D6
:102500006BFCCE98A04201D008F0B8F9894ACE946D
:102510000023911F86938793889389938B938C9341
:102520008D938E938F93909392938DF84C329793D3
:10253000CEA893AB9193FEF765FBCE9A919BA242F6
:1025400001F0CA8293A98B4201F02883CF98D099D9
:1025500091929290939A9391002B01F02483CE93C1
:10256000D0920022CF921A70CE98A04201D008F0EB
:1025700085F9744ACE94911ECEA8FEF743FB86A837
:10258000CEA9FFF729FCCE98A04201D008F076F939
:102590006D4ACE94D11ECEA8FEF734FB86A8CEA9F4
:1025A000FFF71AFCCE98A04201D008F067F9644A00
:1025B000CE94111FCEA8FEF725FB86A8CEA9FFF763
:1025C0000BFCCE98A04201D008F058F95A4ACE949C
:1025D0000023511F989399939A939B939D939E9355
:1025E0009F93A093A193A293A4938DF89432A9935F
:1025F000CEA8A5ABA393FEF705FBCE9AA39BA24260
:1026000001F06382A5A98B4201F09682CF98D09900
:10261000A392A490A59AA591002B01F09282CE934B
:10262000D0920022CF921A70CE98A04201D008F02A
:1026300025F9464ACE94911FCEA8FEF7E3FA98A852
:10264000CEA9FFF7C9FBCE98A04201D008F016F939
:102650003F4ACE94911FCEA8FEF7D4FA98A8CEA9EF
:10266000FFF7BAFBCE98A04201D008F007F9394A2B
:10267000CE94A2F10801CEA8FEF7C4FA98A8CEA97C
:10268000FFF7AAFBCE98A04201D008F0F7F8324A33
:10269000CE94911FCEA8FEF7B5FA98A8CEA9FFF761
:1026A0009BFBCE98A04201D008F0E8F82B4ACE94CC
:1026B000A2F10A01CEA8FEF7A5FA98A8CEA9FFF7C5
:1026C0008BFBCE98A04201D008F0D8F8244ACE94D3
:1026D000D11FCEA8FEF796FA98A8CEA9FFF77CFBEB
:1026E000CE98A04201D008F0C9F81E4ACE94D11F5E
:1026F000CEA8FEF787FA98A8CEA9FFF76DFBCE9873
:10270000A04201D008F0BAF80D4ACE94111FCEA80D
:10271000FEF778FA98A8CEA9FFF75EFBCE98A04204
:1027200001D008F0ABF8054ACE940023111FAA93FC
:10273000AB9319E0CA220100D1220100D822010086
:1027400094220100DE220100E3220100EA220100BE
:10275000F2220100FC2201000A2301000A230100E9
:10276000132301001B230100AC93AD93AF93B093EF
:10277000B193B293B393B493B6938DF8DC32BB9319
:10278000CEA8B7ABB593FEF73DFACE9AB59BA24261
:1027900001F09481B7A98B4201F01482CF98D099AF
:1027A000B592B690B79AB791002B01F01082CE93F4
:1027B000D0920022CF921A70CE98A04201D008F099
:1027C0005DF8A84ACE94511ECEA8FEF71BFAAAA81F
:1027D000CEA9FFF701FBCE98A04201D008F04EF839
:1027E000A14ACE94911ECEA8FEF70CFAAAA8CEA9B3
:1027F000FFF7F2FACE98A04201D008F03FF89B4ACA
:10280000CE94511ECEA8FEF7FDF9AAA8CEA9FFF7D7
:10281000E3FACE98A04201D008F030F8944ACE9462
:10282000911ECEA8FEF7EEF9AAA8CEA9FFF7D4FA1A
:10283000CE98A04201D008F021F88E4ACE94511EC5
:10284000CEA8FEF7DFF9AAA8CEA9FFF7C5FACE9861
:10285000A04201D008F012F8874ACE94511ECEA8AB
:10286000FEF7D0F9AAA8CEA9FFF7B6FACE98A042F3
:1028700001D008F003F8814ACE94911ECEA8FEF74D
:10288000C1F9AAA8CEA9FFF7A7FACE98A04201D015
:1028900007F0F4FF7A4ACE94511ECEA8FEF7B2F9A3
:1028A000AAA8CEA9FFF798FACE98A04201D007F0C7
:1028B000E5FF744ACE94911ECEA8FEF7A3F9AAA80C
:1028C000CEA9FFF789FACE98A04201D007F0D6FF33
:1028D0006D4ACE94511ECEA8FEF794F9AAA8CEA9AF
:1028E000FFF77AFACE98A04201D007F0C7FF674AF7
:1028F000CE94911ECEA8FEF785F9AAA8CEA9FFF71F
:102900006BFACE98A04201D007F0B8FF604ACE948F
:10291000511ECEA8FEF776F9AAA8CEA9FFF75CFA59
:10292000CE98A04201D007F0A9FF5A4ACE94111FB9
:10293000CEA8FEF767F9AAA8CEA9FFF74DFACE9860
:10294000A04201D007F09AFF534ACE940023511FB2
:10295000BC93BD93BE93BF93C193C293C393C493DF
:10296000C593C693C8938DF82433CD93CEA8C9AB35
:10297000C793FEF747F9CE9AC79BA24201F07B802E
:10298000C9A98B4201F0F680CF98D099C792C89020
:10299000C99AC991002B01F0F280CE93D092002207
:1029A000CF921A70CE98A04201D007F067FF3A4A42
:1029B000CE94511FCEA8FEF725F9BCA8CEA9FFF7EB
:1029C0000BFACE98A04201D007F058FF314ACE94BE
:1029D000111FCEA8FEF716F9BCA8CEA9FFF7FCF987
:1029E000CE98A04201D007F049FF2C4A0023A2F163
:1029F0000D0102AECE93CF93D093D193D393D493C2
:102A0000D593D693D793D893DA938DF86C33DF931D
:102A10006846DBABD9930096FEF7F4F8009AD99B91
:102A2000B24201F02180DBA98B4201F0C180019804
:102A30000299D992DA90DB9ADB91002B01F0BD80EC
:102A400000930292002201921A700098B04201D0C5
:102A500007F014FF124A0096111F6846FEF7D2F8DD
:102A6000CEA81FE01D230100222301002523010021
:102A70002A2301004D2201002D23010032230100F1
:102A8000352301003A2301003D23010042230100C8
:102A900045230100942201003D2201004D22010046
:102AA0004C2301006946FFF797F90098B04201D026
:102AB00007F0E4FEA34A0096511F6846FEF7A2F80D
:102AC000CEA86946FFF788F90098B04201D007F018
:102AD000D5FEEC692B6A9C4205F1180701F0958040
:102AE000002C00F0BC800999089A974BC2EB010BAF
:102AF0004FEAEB08002203FB08F322606260A26049
:102B000098463BB1914A934201F2A580584607F09E
:102B1000B3FE8046C4F80080C4F80480089ADDF84B
:102B200024A008EB0B035245A36020D008F1080B4A
:102B30002B46914642465D46A0469B46144654B1FC
:102B400045F8085CD9F80030D9F8042019461A4431
:102B50002046FEF757F809F11809CA4504F1180490
:102B600005F11805EBD123465D46444698460C9B7B
:102B70002361C4F804800E9A0D9B0B99E160C3EBAE
:102B8000020900236361A361E3615FEAA90307D03F
:102B9000B3F1804F81F05F80484607F06DFE034639
:102BA0006361A3610D990E9803EB0902C1EB000864
:102BB000E2615FEA980240F043874344A361119ABF
:102BC000109BC3EB020A5FEA2A184FF0000323624E
:102BD0006362A36207D0B8F1805F81F03C80504609
:102BE00007F04AFE8046C4F82080C4F82480109A7A
:102BF000DDF844B008EB0A035A45A3621ED04346F1
:102C00009146A0464FF0000A1C4674B1C4F808A0D3
:102C1000D9F808304BB10222494620469847D9F8E6
:102C20000C30E360D9F80830A36009F11009CB45F6
:102C300004F11004E9D123464446984604F13403D4
:102C4000C4F82480E362139B149A19461A4404F1D1
:102C50002C00FDF7D7FF199B63642B6AEC6948349D
:102C6000EC61A34200F0EF87002C00F0C3801B99B9
:102C70001A9A354BC2EB010B4FEAEB08002203FB1B
:102C800008F322606260A26098463BB12F4A9342EB
:102C900000F2E187584607F0EFFD8046C4F8008057
:102CA000C4F804801A9ADDF86CA008EB0B035245B7
:102CB000A36020D008F1080B2B46914642465D46A2
:102CC000A0469B46144654B145F8085CD9F800303C
:102CD000D9F8042019461A442046FDF793FF09F15C
:102CE0001809CA4504F1180405F11805EBD123466B
:102CF0005D46444698461E9B2361C4F80480209A92
:102D00001F9B1D99E160C3EB020900236361A3616E
:102D1000E3615FEAA90307D0B3F1804F80F09B879E
:102D2000484607F0A9FD03466361A3611F992098F7
:102D300003EB0902C1EB0008E2615FEA980240F090
:102D4000788605E055230100ABAAAAAAAAAAAA0A76
:102D50004344A361239A229BC3EB020A5FEA2A1829
:102D60004FF0000323626362A36207D0B8F1805F73
:102D700080F07187504607F07FFD8046C4F82080C0
:102D8000C4F82480229ADDF88CB008EB0A035A4577
:102D9000A3621ED043469146A0464FF0000A1C464F
:102DA00074B1C4F808A0D9F808304BB102224946E2
:102DB00020469847D9F80C30E360D9F80830A36072
:102DC00009F11009CB4504F11004E9D1234644462A
:102DD000984604F13403C4F82480E362259B269AC4
:102DE00019461A4404F12C00FDF70CFF2B9B636479
:102DF0002B6AEC694834EC61A34200F00E87002C8A
:102E000000F0BC802D992C9A964BC2EB010B4FEA37
:102E1000EB08002203FB08F322606260A260984680
:102E20003BB1914A934200F21687584607F024FDC1
:102E30008046C4F80080C4F804802C9ADDF8B4A061
:102E400008EB0B035245A36020D008F1080B2B467A
:102E5000914642465D46A0469B46144654B145F80D
:102E6000085CD9F80030D9F8042019461A442046E5
:102E7000FDF7C8FE09F11809CA4504F1180405F167
:102E80001805EBD123465D4644469846309B2361A6
:102E9000C4F80480329A319B2F99E160C3EB020899
:102EA00000236361A361E3615FEAA80307D0B3F184
:102EB000804F80F0D086404607F0DEFC0346636119
:102EC000A3613199329803EB0802C1EB0008E2617B
:102ED0005FEA980240F0A6854344A361359A349B8B
:102EE000C3EB020A5FEA2A184FF000032362636211
:102EF000A36207D0B8F1805F80F0AD86504607F03E
:102F0000BBFC8046C4F82080C4F82480349ADDF8E5
:102F1000D4B008EB0A035A45A3621ED0434691463B
:102F2000A0464FF0000A1C4674B1C4F808A0D9F8B6
:102F300008304BB10222494620469847D9F80C3058
:102F4000E360D9F80830A36009F11009CB4504F11A
:102F50001004E9D123464446984604F13403C4F8EA
:102F60002480E362379B389A19461A4404F12C00F6
:102F7000FDF748FE3D9B63642B6AEC694834EC61C5
:102F8000A34200F05286002C00F0C2803F993E9A86
:102F9000344BC2EB010B4FEAEB09002203FB09F3B0
:102FA00022606260A26099463BB12F4A934200F2D0
:102FB0005286584607F060FC8146C4F80090C4F879
:102FC00004903E9ADDF8FCA009EB0B035245A36088
:102FD00020D009F1080B2B4690464A465D46A14693
:102FE0009B46144654B145F8085CD8F80030D8F830
:102FF000042019461A442046FDF704FE08F118087B
:10300000C24504F1180405F11805EBD123465D46CD
:103010004C469946429B2361C4F80490449A439BD2
:103020004199E160C3EB020900236361A361E3619D
:103030005FEAA90307D0B3F1804F80F00C864846C1
:1030400007F01AFC03466361A3614399449803EBBC
:103050000902C1EB0008E2615FEA980240F0DB84FC
:1030600004E000BFABAAAAAAAAAAAA0A4344A36181
:10307000479A469BC3EB020A5FEA2A184FF0000307
:1030800023626362A36207D0B8F1805F80F0E385BA
:10309000504607F0F1FB8046C4F82080C4F8248035
:1030A000469ADDF81CB108EB0A035A45A3621ED00C
:1030B0002346914644464FF0000A984674B1C4F83E
:1030C00008A0D9F808304BB102224946204698475B
:1030D000D9F80C30E360D9F80830A36009F1100981
:1030E000CB4504F11004E9D14346A0461C4604F147
:1030F0003403C4F82480E362499B4A9A19461A446F
:1031000004F12C00FDF77EFD4F9B63642B6AEC6994
:103110004834EC61A34200F09085002C00F0BB80A5
:103120005199509ABE4BC2EB010B4FEAEB090022BA
:1031300003FB09F322606260A26099463BB1B94A81
:10314000934200F28885584607F096FB8146C4F802
:103150000090C4F80490509ADDF844A109EB0B03E9
:103160005245A36020D009F1080B2B469046224619
:103170005D464C469B46914654B145F8085CD8F8EC
:103180000030D8F8042019461A442046FDF73AFDCD
:1031900008F11808C24504F1180405F11805EBD12F
:1031A0004B465D46A1461C46549B2361C4F80490DF
:1031B000569A559B5399E160C3EB02090023636162
:1031C000A361E3615FEAA90307D0B3F1804F80F008
:1031D0004285484607F050FB03466361A361559959
:1031E000569803EB0902C1EB0008E2615FEA98021E
:1031F00040F02D844344A361599A589BC3EB020AC3
:103200005FEA2A184FF0000323626362A36207D0CB
:10321000B8F1805F80F01F85504607F02DFB804697
:10322000C4F82080C4F82480589ADDF864B108EB13
:103230000A035A45A3621ED02346914644464FF0E6
:10324000000A984674B1C4F808A0D9F808304BB108
:103250000222494620469847D9F80C30E360D9F855
:103260000830A36009F11009CB4504F11004E9D13D
:103270004346A0461C4604F13403C4F82480E362AC
:103280005B9B5C9A19461A4404F12C00FDF7BAFCCA
:10329000619B6364EC694834EC6162A93846FEF7CF
:1032A00033FC74A93846FEF72FFCD5F81C902B6A26
:1032B000994500F0A584B9F1000F00F0C880879906
:1032C000869A574BC2EB010B4FEAEB08002203FB37
:1032D00008F3C9F80020C9F80420C9F80820984666
:1032E0003BB1504A934200F2B684584607F0C4FA04
:1032F0008046C9F80080C9F80480869CDDF81CA2CD
:1033000008EB0B035445C9F808301CD008F1080B32
:103310002A46334645465E4690469B4645B146F8AA
:10332000086C2368626819461A442846FDF76AFC4F
:103330001834A24505F1180506F11806EED14346EA
:103340005E46A8461D468A9BC9F81030C9F804801D
:103350008C9A8B9B8999C9F80C10C3EB0208002347
:10336000C9F81430C9F81830C9F81C305FEAA8034E
:1033700007D0B3F1804F80F06E84404607F07CFAAE
:103380000346C9F81430C9F818308B998C9C03EBAC
:103390000802641AC9F81C20A20840F05F831C448C
:1033A000C9F818408F9A8E9BC3EB020A5FEA2A1471
:1033B0004FF00003C9F82030C9F82430C9F828308C
:1033C00007D0B4F1805F80F04684504607F054FA8D
:1033D0000446C9F82040C9F824408E9ADDF83CB272
:1033E00004EB0A035A45C9F828301DD090464FF027
:1033F000000A74B1C4F808A0D8F808304BB1022212
:10340000414620469847D8F80C30E360D8F8083099
:10341000A36008F11008C34504F11004E9D103E0EA
:10342000ABAAAAAAAAAAAA0A09F13403C9F8244095
:10343000C9F82C30919B929A19461A4409F12C0034
:10344000FDF7E0FB979BC9F84430D5F81C9009F1D3
:103450004803EB61384698A9FEF756FB3846AAA9FF
:10346000FEF752FB3846BCA9FEF74EFB3846CEA904
:10347000FEF74AFBA869286000F1480200F1D80174
:1034800000F5D87E00F5347700F5467468604FF09B
:10349000000314300092019105AA6946CDF808E0B6
:1034A00003970494FEF7C2FCA8694FF0000300F1F3
:1034B000900408AA5C306946009401940294039435
:1034C0000494059406940794FEF7B0FCA24AA869F8
:1034D000A2F11001A4304FF00003FEF7A7FCA86989
:1034E000324600F5B47400F590764FF00003EC30EE
:1034F000694600960194FEF799FC984AA869A2F1E2
:10350000080100F59A704FF00003FEF78FFC944A13
:10351000A869A2F1080100F5BE704FF00003FEF7A4
:1035200085FCA8694FF0000300F5FC7E00F51077DC
:1035300000F52276002400F5E270694604AACDF871
:1035400000E0019702960394FEF770FCD998DBAB7C
:10355000984201D007F092F9D69CD79EB44209D088
:10356000A3681BB103222146204698471034A64287
:10357000F6D1D69E16B1304607F080F9D39808B13F
:1035800007F07CF9CE9ECF9FBE420DD006F1080415
:1035900054F8080C844201D007F070F91836B7428D
:1035A00004F11804F4D1CE9F17B1384607F066F93C
:1035B000C798C9AB984201D007F060F9C49CC59E7A
:1035C000B44209D0A3681BB1032221462046984784
:1035D0001034A642F6D1C49E16B1304607F04EF91B
:1035E000C19808B107F04AF9BC9EBD9FBE420DD0FC
:1035F00006F1080454F8080C844201D007F03EF9A3
:103600001836B74204F11804F4D1BC9F17B13846FC
:1036100007F034F9B598B7AB984201D007F02EF90E
:10362000B29CB39EB44209D0A3681BB103222146C9
:10363000204698471034A642F6D1B29E16B13046C5
:1036400007F01CF9AF9808B107F018F9AA9EAB9FD4
:10365000BE420DD006F1080454F8080C844201D093
:1036600007F00CF91836B74204F11804F4D1AA9FF8
:1036700017B1384607F002F9A398A5AB984201D0DC
:1036800007F0FCF8A09CA19EB44209D0A3681BB12E
:1036900003222146204698471034A642F6D1A09E28
:1036A00016B1304607F0EAF89D9808B107F0E6F841
:1036B000989E999FBE420DD006F1080454F8080C5C
:1036C000844201D007F0DAF81836B74204F1180442
:1036D000F4D1989F17B1384607F0D0F8919893AB82
:1036E000984201D007F0CAF88E9C8F9EB44209D050
:1036F000A3681BB103222146204698471034A642F6
:10370000F6D18E9E16B1304607F0B8F88B9808B106
:1037100007F0B4F8869E879FBE420DD006F10804DC
:1037200054F8080CA04201D007F0A8F81836B742A8
:1037300004F11804F4D1869F17B1384607F09EF8BB
:103740007F9881AB984201D007F098F87C9C7D9ED1
:10375000B44211D006E000BFE81F0100F01F0100D5
:10376000F81F0100A3681BB1032221462046984799
:103770001034A642F6D17C9E16B1304607F07EF892
:10378000799808B107F07AF8749E759FBE420DD003
:1037900006F1080454F8080CA04201D007F06EF8B6
:1037A0001836B74204F11804F4D1749F17B13846A3
:1037B00007F064F86D986FAB984201D007F05EF89F
:1037C0006A9C6B9EB44209D0A3681BB103222146B8
:1037D000204698471034A642F6D16A9E16B130466C
:1037E00007F04CF8679808B107F048F8629E639FAD
:1037F000BE420DD006F1080454F8080C844201D0F2
:1038000007F03CF81836B74204F11804F4D1629F6F
:1038100017B1384607F032F85B985DAB984201D09B
:1038200007F02CF8589C599EB44209D0A3681BB1EC
:1038300003222146204698471034A642F6D1589ECE
:1038400016B1304607F01AF8559808B107F016F887
:10385000509E519FBE420DD006F1080454F8080C4A
:10386000844201D007F00AF81836B74204F1180470
:10387000F4D1509F17B1384607F000F849984BAB88
:10388000984201D006F0FAFF469C479EB44209D008
:10389000A3681BB103222146204698471034A64254
:1038A000F6D1469E16B1304606F0E8FF439808B1BF
:1038B00006F0E4FF3E9E3F9FBE420DD006F1080495
:1038C00054F8080C844201D006F0D8FF1836B742ED
:1038D00004F11804F4D13E9F17B1384606F0CEFF2C
:1038E000379839AB984201D006F0C8FF349C359E1A
:1038F000B44209D0A3681BB1032221462046984751
:103900001034A642F6D1349E16B1304606F0B6FF0A
:10391000319808B106F0B2FF2C9E2D9FBE420DD00B
:1039200006F1080454F8080C844201D006F0A6FF02
:103930001836B74204F11804F4D12C9F17B1384659
:1039400006F09CFF259827AB984201D006F096FF21
:10395000229C239EB44209D0A3681BB103222146B6
:10396000204698471034A642F6D1229E16B1304622
:1039700006F084FF1F9808B106F080FF1A9E1B9F77
:10398000BE420DD006F1080454F8080C844201D060
:1039900006F074FF1836B74204F11804F4D11A9FE8
:1039A00017B1384606F06AFF139815AB984201D05C
:1039B00006F064FF109C119EB44209D0A3681BB1AD
:1039C00003222146204698471034A642F6D1109E85
:1039D00016B1304606F052FF0D9808B106F04EFFC2
:1039E000089E099FBE420DD006F1080454F8080C49
:1039F000A04201D006F042FF1836B74204F1180485
:103A0000F4D1089F17B1384606F038FF28460DF567
:103A1000617DBDE8F08F184642460AF0A1FA0346E0
:103A2000FFF724BB184642460AF09AFA0346FFF70E
:103A300053BA184642460AF093FA0346FFF788B98C
:103A4000184642460AF08CFA0346FFF7B6B8184605
:103A500042460AF085FA0346FFF7CCBB18462246D9
:103A60000AF07EFA03469AE46946D9A8FDF7F8F809
:103A7000009BFEF7E7BFCEA9C7A8FDF7F1F8CE9BE4
:103A8000FEF78DBFCEA925A8FDF7EAF8CE9BFEF77D
:103A9000EBBACEA913A8FDF7E3F8CE9BFEF764BA04
:103AA000CEA949A8FDF7DCF8CE9BFEF7F7BBCEA95F
:103AB00037A8FDF7D5F8CE9BFEF781BBCEA9B5A8F8
:103AC000FDF7CEF8CE9BFEF774BECEA9A3A8FDF7F6
:103AD000C7F8CE9BFEF7A5BDCEA991A8FDF7C0F80B
:103AE000CE9BFEF73EBDCEA97FA8FDF7B9F8CE9BD1
:103AF000FEF7C8BCCEA96DA8FDF7B2F8CE9BFEF7C5
:103B000073BCCEA95BA8FDF7ABF8CE9BFEF718BC43
:103B1000CF99D09B5B925C915D93CE94D0AC2346C1
:103B2000FEF70EBCCF99D09B7F9280918193CE946B
:103B3000D0AC2346FEF7A6BCCF99D09BA392A4910C
:103B4000A593CE94D0AC2346FEF76BBDCF99D09B06
:103B5000379238913993CE94D0AC2346FEF72FBBE1
:103B6000CF99D09B139214911593CE94D0AC234649
:103B7000FEF7FAB9CF99D09BC792C891C993CE945A
:103B8000D0AC2346FEF70BBFCF99D09B2592269150
:103B90002793CE94D0AC2346FEF766BACF99D09B3C
:103BA000919292919393CE94D0AC2346FEF7D9BCD8
:103BB0000199029BD992DA91DB93009602AE3346CB
:103BC000FEF740BFCF99D09BB592B691B793CE94F4
:103BD000D0AC2346FEF7EDBDCF99D09B49924A91D8
:103BE0004B93CE94D0AC2346FEF758BBCF99D09BD5
:103BF0006D926E916F93CE94D0AC2346FEF7F4BBDA
:103C000086A93846FDF79AFD24E408A93846FDF751
:103C100095FDEC692B6AFFF724B82CA93846FDF70F
:103C20008DFDEC692B6AFFF7ABB93EA93846FDF76D
:103C300085FDEC692B6AFFF76DBA50A93846FDF790
:103C40007DFDFFF72ABB1AA93846FDF777FDEC6921
:103C50002B6AFFF7D1B800F067FE00BF2DE9F041F5
:103C600006F0D8FB524D00272E4605F58C783046DD
:103C7000382200210AF0D8F9383646F8307C46F868
:103C8000207C46F8107C46454FF00004EFD1C5F883
:103C90007C4101264748FEF721F985F8584285F80E
:103CA000594285F85A4285F85B4285F8644285F8A6
:103CB0006542C5F8684285F86C42C5F87042C5F89F
:103CC000A042C5F8B042C5F8C042C5F8D042C5F818
:103CD000E042C5F8F042C5F80043C5F81043C5F806
:103CE0002043C5F83043C5F84043C5F85043C5F8F4
:103CF0006043C5F87043C5F88043C5F89043C5F8E4
:103D0000A043C5F8B043C5F8C043C5F8D043C5F8D3
:103D1000E043C5F8F04385F86D62274AC5F80044D2
:103D20002649C5F81044C5F82044C5F83044C5F804
:103D30004044C5F85044C5F86044C5F87044C5F81F
:103D40008044C5F89044C5F8A04419481C4D09F0BA
:103D50006FFD1C49AE7151F8040BE8601023E818A0
:103D60004FF400722C716C712C726C72AC72EC722C
:103D7000EB7106F04FFC144B85F810428025134E72
:103D80001C6378271D711D731C609C601C745C741F
:103D90005C611C625C625C639C63DC639F611E64AB
:103DA000054A0B491846BDE8F04109F041BD00BF86
:103DB0004032FF1FC033FF1F400CFF1F29080000C7
:103DC000E42FFF1FD41D0100FC31FF1F0000F04253
:103DD0008906000038B5054CA4F170052046103C5A
:103DE00006F0F8F9AC42F9D138BD00BF4C37FF1FDF
:103DF00038B5054CA4F1C005103C204606F0EAF9A0
:103E0000AC42F9D138BD00BF1C38FF1F70B5364C2D
:103E10003649374E374D204606F01CFA04F11000A3
:103E2000354906F017FA04F12000344906F012FA79
:103E300004F13000324906F00DFA04F14000314936
:103E400006F008FA04F150002F4906F003FA04F1D5
:103E500060002E4906F0FEF904F170002C4906F0CE
:103E6000F9F904F180002B4906F0F4F904F190000F
:103E7000294906F0EFF904F1A000284906F0EAF913
:103E800004F1B000264906F0E5F932462549002044
:103E900009F0CEFC2846244906F0DCF905F11000B3
:103EA000224906F0D7F905F12000214906F0D2F9A0
:103EB00005F130001F4906F0CDF905F140001E491B
:103EC00006F0C8F905F150001C4906F0C3F905F1E8
:103ED00060001B4906F0BEF932461A490020BDE8D1
:103EE000704009F0A5BC00BF5C37FF1F1C23010018
:103EF000400CFF1FEC36FF1F20230100242301008C
:103F0000282301004C2201002C2301003023010052
:103F100034230100382301003C2301004023010029
:103F200044230100F13D0000E4220100EC220100E5
:103F3000F422010004230100002301000C230100EE
:103F400014230100D53D000008B52D4B1B6993F8E3
:103F500055350A2B4DD8DFE803F00F10161C222828
:103F60002E343A4306000D21264808F0B9F92648B8
:103F7000BDE8084006F0C0B808BD0C212348BDE8E4
:103F8000084008F0ADB91C212148BDE8084008F000
:103F9000A7B91C211F48BDE8084008F0A1B91C21A1
:103FA0001D48BDE8084008F09BB914211B48BDE836
:103FB000084008F095B90D211948BDE8084008F0FF
:103FC0008FB90A211748BDE8084008F089B90B21CC
:103FD000154808F085F90C48BDE8084006F08CB893
:103FE0000D21124808F07CF90748BDE8084006F0AA
:103FF00083B809210E48BDE8084008F071B900BF38
:10400000243CFF1F182401002825FF1FB8230100AE
:10401000582301007823010098230100C8230100E0
:10402000E0230100F0230100FC230100082401002B
:104030002824010070B53C210E480F4C05F01EFAF3
:1040400040210C4804F0E8FD04F58066094D14F8A1
:10405000011F284604F0E0FDB442F7D106F082FECD
:10406000064B697B1860012228690023BDE8704077
:1040700005F012BA4C3CFF1F2338FF1F1C38FF1FEE
:1040800038B5164C164D23782BB92869144C05F019
:104090000DFB50B138BD286905F008FB0028F4D0AD
:1040A000FFF7C8FF0023237038BD0E4D06F05AFEFF
:1040B0002B680D4AC01A904200D838BDFFF744FF64
:1040C00006F050FE2A680949821A094806F02CF8C1
:1040D000617B2069BDE8384005F078B92038FF1FC2
:1040E0004C3CFF1F1C38FF1F48E80100342401002E
:1040F0002825FF1F024B01221A70FFF7C1BF00BF26
:104100002038FF1F38B50D4C0D4620463C2105F0E8
:10411000B5F92046002104F07FFD2946204604F031
:104120007BFD617B20690023012205F0B5F9617BED
:1041300020690022BDE8384005F0C0BA4C3CFF1FA2
:10414000F0B54F4C4F4A2369617B87B04FF0120C9A
:104150004FF0130E00260127CDF808C0CDF804E07B
:104160000546049218463246334605970396009654
:1041700004F0F2FF0222617B206904F05FFE6420FC
:1041800006F014FE28462021FFF7BCFF39462846DA
:10419000FFF7B8FF28462121FFF7B4FF3146284634
:1041A000FFF7B0FF28467F21FFF7ACFF284622210A
:1041B000FFF7A8FF31462846FFF7A4FF39462846F7
:1041C000FFF7A0FF28464021FFF79CFF2846C821A3
:1041D000FFF798FF2846A121FFF794FF2846812189
:1041E000FFF790FF2846FF21FFF78CFF2846AF21FD
:1041F000FFF788FF28468D21FFF784FF284614210A
:10420000FFF780FF322006F0D1FD23691E4AC3F874
:10421000602520463C2105F031F93146204604F066
:10422000FBFC2046202104F0F7FC3146204604F038
:10423000F3FC2046212104F0EFFC3146204604F037
:10424000EBFC20467F2104F0E7FC2046222104F00D
:10425000E3FC3146204604F0DFFC2046072104F051
:10426000DBFC3A46617B2069334605F015F9617B3A
:104270002069324607B0BDE8F04005F01FBA00BF24
:104280004C3CFF1F801A060081400000FFF758BF1A
:1042900030B4064D802300244268013B02F1010145
:1042A0004160AC54F8D130BC704700BF2438FF1FC8
:1042B000F0B55C1E48BF03F10E0424F00F07103761
:1042C0008023DFF83CE093FBF7F7002408E001349B
:1042D0009342D4BFE0230023802C0EF805300DD08C
:1042E00094FBF7F345688B4205F101064660EEDA70
:1042F00001340023802C0EF80530F1D1F0BD00BF51
:104300002438FF1F2DE9F04F83B04FF000093A4DDC
:10431000DFF8EC8001914F464FF0120C0923426800
:10432000013B541C13F0FF034460AF54F7D1019BD1
:104330001B78002B5CD0202BDDF804E04FF0120638
:1043400009F1090A1ED0232B3AD0A3F12C04E4B2C0
:104350001CFB04931CFB04A4434444444268511CCA
:10436000416013F801BB05F802B09C42F6D11EF87B
:10437000013FA3B106F10902D2B2992A0FD0202B36
:104380001646E0D109234268013B541C13F0FF0399
:104390004460AF54F7D11EF8013F002BEAD132063A
:1043A00007D4436801365A1CF6B24260EF54330614
:1043B000F7D5BAF1120FD146B0D103B0BDE8F08FF6
:1043C000092207E0032B14BF1023FF2312F0FF0282
:1043D0002B55CCD04468094B611C0B40002B02F1DB
:1043E000FF324160EEDA013B63F003030133E9E79A
:1043F00009F1090A0926D4E72438FF1F03000080C9
:10440000602401002DE9F04F1446013A48BF04F141
:104410000E0222F00F0210328026C3B007468946F2
:1044200096FBF2F6002C72D00A4608194FF0FF3ABC
:104430004FF47A7512F8011B8D42A8BF0D468A45CC
:10444000B8BF8A468242F5D10DF1080800214046E6
:104450004FF48072019309F0E7FD04F1804C0CF1F8
:10446000FF3C019B09F1FF30C5EB0A0E08EB8C0CF9
:1044700001A94FF0010910F8012F521BC2EB4212A3
:1044800092FBFEF2D2B2C2F11F0209FA02F25242CC
:1044900041F8042F8C45EED10F2C08DC08EB840288
:1044A000043A11A8002142F8041F9042FBD11D4894
:1044B0004FEA660C00244FF0FF0906F1FF3E09FAAF
:1044C00004F500220DE0E24513D00021D7F804A046
:1044D00001320AF1010B802AC7F804B000F80A1073
:1044E0000FD092FBF6F106FB112A002BEBD1F2451F
:1044F00005D058F821102940E140C9B2E6E7194635
:10450000E4E70834202CDAD143B0BDE8F08F0DF198
:10451000080840464FF480722146019309F084FD5B
:10452000019BBBE72438FF1F2DE9F04F9046013A6D
:1045300048BF08F10E0222F00F0210328026C3B0ED
:1045400007468A4696FBF2F6B8F1000F75D00FFACF
:1045500088F401EB84000A464FF0FF3B4FF47A7574
:1045600052F8041B8D42A8BF0D468B45B8BF8B4641
:104570008242F5D10DF10809002148464FF48072BE
:10458000019309F051FD08F1804C0CF1FF3C019BB7
:10459000AAF10400C5EB0B0E09EB8C0C01A94FF03E
:1045A000010A50F8042F521BC2EB421292FBFEF29A
:1045B000C2F11F020AFA02F2524241F8042F8C455E
:1045C000EFD1B8F10F0F08DC09EB8402043A11A80F
:1045D000002142F8041F8242FBD11E484FEA660CBC
:1045E00000244FF0FF0806F1FF3E08FA04F5002210
:1045F0000DE0E24513D00021D7F804A001320AF102
:10460000010B802AC7F804B000F80A100FD092FB03
:10461000F6F106FB112A002BEBD1F24505D059F833
:1046200021102940E140C9B2E6E71946E4E7083421
:10463000202CDAD143B0BDE8F08F0DF108094846CF
:104640004FF4807241460193444609F0EDFC019B12
:10465000BAE700BF2438FF1F2DE9F84F4FF0000BD9
:10466000C0F804B0214D9DF828909DF82C609DF86D
:104670003070044698469246FFF744FE5846802321
:104680006168013B01F1010262606854F8D14B4658
:10469000424651462046FFF7B5FEB8F1010348BF38
:1046A00008F10E0323F00F0E0EF1100E80230022EE
:1046B00093FBFEFE07E00132BB42D4BFE0230023A0
:1046C000802A6B540CD092FBFEF361689E4201F18C
:1046D00001006060EFDD01320023802A6B54F2D1CB
:1046E0002046BDE8F84FFFF705BD00BF2438FF1F87
:1046F0002DE9F84F4FF0000BC0F804B0214D9DF8A4
:1047000028909DF82C609DF830700446984692469B
:10471000FFF7F8FD584680236168013B01F1010273
:1047200062606854F8D14B46424651462046FFF736
:10473000FBFEB8F1010348BF08F10E0323F00F0E92
:104740000EF1100E8023002293FBFEFE07E00132E3
:10475000BB42D4BFE0230023802A6B540CD092FBD1
:10476000FEF361689E4201F101006060EFDD0132FD
:104770000023802A6B54F2D12046BDE8F84FFFF7A2
:10478000B9BC00BF2438FF1F00232DE9F0410446C7
:10479000174F90461846802500E063685A1C013D7B
:1047A0006260F854F9D12046FFF7ACFD80266368BB
:1047B000013E03F101016160FD54F8D141462046FC
:1047C000FFF7A0FD80236268013B02F101016160F7
:1047D000BE54F8D180226168013A01F101006060A5
:1047E0007B54F8D12046BDE8F041FFF783BC00BF01
:1047F0002438FF1F2DE9F041DFF8F8803B4DD8F851
:10480000041082B00446D8F800006B4603C310279A
:1048100000220DF107060DF1FF3300E0626813F886
:10482000011F501C9E426060A954F7D17B1E13F0FB
:10483000FF0701D06268EEE7D8F80000D8F804104E
:104840006B4603C310270DF1FF33626813F8011F95
:10485000501CB3426060A954F7D1791E11F0FF07D4
:10486000F1D1394680276368013F03F1010262609C
:10487000E954F8D11E492046FFF744FD80236268C1
:10488000013B02F101016160AF54F8D1D8F800009A
:10489000D8F804106B4603C310270DF1FF3362688C
:1048A00013F8011F501C9E426060A954F7D17B1E73
:1048B00013F0FF07F1D1D8F80000D8F804106B46C8
:1048C00003C310270DF1FF33626813F8011F501C5A
:1048D0009E426060A954F7D17B1E13F0FF07F1D10F
:1048E000204602B0BDE8F041FFF704BC2438FF1FAA
:1048F000542401004C24010000234360704700BF92
:10490000FFF7F8BB38B5044608460D4609F058FED7
:104910002368024629465B6820469847054620469C
:1049200005F0EAFB284438BD08B502490248FFF704
:10493000E9FFFEE7B02701002825FF1F04460549CF
:10494000054808B50E2207F06FF921460248FFF727
:10495000D9FFFEE7CC2701002825FF1F08B5024933
:104960000248FFF7CFFFFEE7DC2701002825FF1FE5
:10497000014608B50148FFF7C5FFFEE72825FF1FE0
:1049800008B50121092006F0E7F901210A2006F007
:10499000E3F901210B2006F0DFF901210C2006F0DC
:1049A000DBF90121182006F0D7F90021192006F0C3
:1049B000D3F900211A2006F0CFF900211C2006F0BF
:1049C000CBF900211D2006F0C7F900211B20BDE80E
:1049D000084006F0C1B900BFC3074CBF0D4B0E4BDA
:1049E000082281071A604CBF0A4B0B4B10221A6039
:1049F00042074CBF074B084B40221A6003074CBFCD
:104A0000044B054B80221A6041F27073013BFDD1CB
:104A1000704700BF84F00F4088F00F40024B1868C9
:104A2000C0F34010704700BF10F00F40024B1868F1
:104A3000C0F38030704700BF10F00F40024B186881
:104A4000C0F30040704700BF10F00F40024B1868E1
:104A5000C0F38040704700BF50F00F40024B186811
:104A6000C0F3C030704700BF10F00F4020B9054BB5
:104A70004FF080621A607047034B4FF080621A60FB
:104A8000704700BF08F10F4004F10F4048797047AC
:104A900008787047012A08BF01600020704700BFF6
:104AA000012A06D0022A02D108B10B680360002057
:104AB0007047016000207047012A06D0022A02D107
:104AC00008B10B6803600020704701600020704748
:104AD000012A06D0022A02D108B10B680360002027
:104AE0007047016000207047012A06D0022A02D1D7
:104AF00008B10B6803600020704701600020704718
:104B0000012A06D0022A02D108B10B6803600020F6
:104B10007047016000207047012A06D0022A02D1A6
:104B200008B10B68036000207047016000207047E7
:104B3000012A06D0022A02D108B10B6803600020C6
:104B40007047016000207047012A06D0022A02D176
:104B500008B10B68036000207047016000207047B7
:104B6000012A06D0022A02D108B10B680360002096
:104B70007047016000207047012A06D0022A02D146
:104B800008B10B6803600020704701600020704787
:104B9000012A06D0022A02D108B10B680360002066
:104BA0007047016000207047012A06D0022A02D116
:104BB00008B10B6803600020704701600020704757
:104BC000012A06D0022A02D108B10B680360002036
:104BD0007047016000207047012A06D0022A02D1E6
:104BE00008B10B6803600020704701600020704727
:104BF000012A06D0022A02D108B10B680360002006
:104C00007047016000207047012A06D0022A02D1B5
:104C100008B10B68036000207047016000207047F6
:104C2000012A06D0022A02D108B10B6803600020D5
:104C30007047016000207047012A06D0022A02D185
:104C400008B10B68036000207047016000207047C6
:104C5000012A06D0022A02D108B10B6803600020A5
:104C60007047016000207047012A06D0022A02D155
:104C700008B10B6803600020704701600020704796
:104C8000012A06D0022A02D108B10B680360002075
:104C90007047016000207047012A06D0022A02D125
:104CA00008B10B6803600020704701600020704766
:104CB000012A06D0022A02D108B10B680360002045
:104CC0007047016000207047012A06D0022A02D1F5
:104CD00008B10B6803600020704701600020704736
:104CE000012A06D0022A02D108B10B680360002015
:104CF000704701600020704700B50B6800681A68B3
:104D0000D0F8A033526883B0019243B1D0F8A433F5
:104D100001A900F56670984703B05DF804FBFFF742
:104D20001DFE00BF00B50B6800681A68D0F8B033EC
:104D3000526883B0019243B1D0F8B43301A900F5B1
:104D40006A70984703B05DF804FBFFF707FE00BFE9
:104D500000B50B6800681A68D0F8C033526883B099
:104D6000019243B1D0F8C43301A900F56E709847A1
:104D700003B05DF804FBFFF7F1FD00BF00B50B6861
:104D800000681A68D0F85034926883B0019243B139
:104D9000D0F8543401A900F58960984703B05DF854
:104DA00004FBFFF7DBFD00BF00B50B6800681A6865
:104DB000D0F87034926883B0019243B1D0F8743463
:104DC00001A900F58D60984703B05DF804FBFFF77B
:104DD000C5FD00BF00B50B6800681A68D0F88034C4
:104DE000926883B0019243B1D0F8843401A900F5F0
:104DF0008F60984703B05DF804FBFFF7AFFD00BF7D
:104E000000B50B6800681A68D0F89034926883B0D7
:104E1000019243B1D0F8943401A900F5916098470C
:104E200003B05DF804FBFFF799FD00BF30B50D68D6
:104E3000044600682A68D0F8A034526883B0019212
:104E40008BB1D0F8A43401A900F5936098472B6882
:104E500022685B68A3F10103B3FA83F35B0982F86C
:104E60005A3203B030BDFFF779FD00BF0068034A36
:104E7000034900F5BC70FFF787BC00BFF8270100AD
:104E8000082801000068034A034900F5BC70FFF7D9
:104E90007BBC00BFF8270100082801000068D0F89B
:104EA000603423B1D0F8643400F58B60184710B536
:104EB000FFF754FD012A08BF01600020704700BFC2
:104EC000036870B5D3F88041636C84B0C3B1D3ED8F
:104ED000007A2569B7EE000A37EEC00A83ED000AB2
:104EE00045B3E46A6846022105F00EFA21462846D9
:104EF000009AFFF749FC684605F06CF904B070BDF4
:104F000026686368E268144D20699B1BDB1005FB73
:104F100003F1531E0B44B3FBF1F201FB1233E360C8
:104F200040B103EB4303E16A56F83320FFF72CFC52
:104F300004B070BD1E21094807F0D2F9084805F0F9
:104F4000DBF8636C1BB1256993ED000AC9E72069A2
:104F5000E3682668E5E700BFABAAAAAA1428010007
:104F60002825FF1F036830B5D3F88041636C85B0F6
:104F7000C3B1D3ED007A2569B7EE000A37EE800A97
:104F800083ED000A45B3E46A6846022105F0BCF9E6
:104F900021462846009AFFF7F7FB684605F01AF904
:104FA00005B030BD94E80600E568144B2069521A3C
:104FB000D21003FB02F30135B5FBF3F203FB1253EE
:104FC000E36048B10A4603EB4303E16A52F8332039
:104FD000FFF7DAFB05B030BD1E21094807F080F964
:104FE000084805F089F8636C1BB1256993ED000A48
:104FF000C9E72069E3682268E5E700BFABAAAAAA6F
:10500000142801002825FF1F2DE9F04F8BB086469C
:105010009DF850609DF85440009400EBC60527466B
:105020000C4695E8030082E80300013695E803008A
:10503000F6B2BE4283E8030054D80EEBC60595E8ED
:1050400003009846A368CDF804E00DF1100A174656
:105050008AE803000DF1080953B946E0019B03EB10
:10506000C60595E80300A3688AE80300002B3CD03E
:10507000E368514620469847834697E80300A368B3
:1050800089E80300002B30D0E36849462046984762
:10509000584594BF3846284603C887E8030095E87A
:1050A0000300A36808AA82E80300F3B11146E3688D
:1050B00020469847834698E80300A36806AA82E83A
:1050C000030093B1E368114620469847584528BF2E
:1050D000454695E803000136009BF6B2B34288E8E6
:1050E0000300BBD20BB0BDE8F08FFFF737FC00BF69
:1050F000F0B587B002AD0290044695E803008DE854
:10510000030094E8030085E803009DE80300A3681A
:10511000B84FB94A049384E80300E168A7606E467B
:105120000591E2601BB10322294628469847029464
:1051300095E8030004F1100386E8030093E80300F8
:1051400085E8030096E8030083E80300A369E069AB
:10515000AA49AB4A04930590A161E2611BB1032205
:10516000294628469847029495E8030004F1200355
:1051700086E8030093E8030085E8030096E803004F
:1051800083E80300A36AE06A9E499F4A049305905E
:10519000A162E2621BB10322294628469847029485
:1051A00095E8030004F1380386E8030093E8030060
:1051B00085E8030096E8030083E80300236C606C35
:1051C0009249934A04930590216462641BB10322BF
:1051D000294628469847029495E8030004F14803BD
:1051E00086E8030093E8030085E8030096E80300DF
:1051F00083E80300236D606D8649874A0493059018
:10520000216562651BB1032229462846984702940E
:1052100095E8030004F1580386E8030093E80300CF
:1052200085E8030096E8030083E80300236E606EC0
:105230007A497B4A04930590216662661BB103227A
:10524000294628469847029495E8030004F1700324
:1052500086E8030093E8030085E8030096E803006E
:1052600083E80300A36FE06F6E496F4A04930590D3
:10527000A167E2671BB1032229462846984702949A
:1052800095E8030004F1800386E8030093E8030037
:1052900085E8030096E8030083E80300D4F888302B
:1052A000D4F88C006149624A04930590C4F88810D0
:1052B000C4F88C201BB10322294628469847029443
:1052C00095E8030004F1900386E8030093E80300E7
:1052D00085E8030096E8030083E80300D4F89830DB
:1052E000D4F89C005349544A04930590C4F898108C
:1052F000C4F89C201BB103222946284698470294F3
:1053000095E8030004F1A80386E8030093E803008E
:1053100085E8030096E8030083E80300D4F8B03082
:10532000D4F8B4004549464A04930590C4F8B01037
:10533000C4F8B4201BB1032229462846984702949A
:1053400095E8030004F1B80386E8030093E803003E
:1053500085E8030096E8030083E80300D4F8C03032
:10536000D4F8C4003749384A04930590C4F8C010F3
:10537000C4F8C4201BB1032229462846984702944A
:1053800095E8030004F1C80386E8030093E80300EE
:1053900085E8030096E8030083E80300D4F8D030E2
:1053A000D4F8D40029492A4A04930590C4F8D010AF
:1053B000C4F8D4201BB103222946284698470294FA
:1053C00095E8030004F1E00386E8030093E8030096
:1053D00085E8030096E8030083E80300D4F8E8308A
:1053E000D4F8EC001B491C4A04930590C4F8E8105B
:1053F00034E000BFA14A000071620000B94A000019
:10540000E9620000D14A000061630000E94A00003F
:105410009D630000014B000059640000194B00001F
:105420006D4E0000314B000019650000494B000033
:1054300095650000614B0000854E0000794B00002F
:1054400011660000914B000089660000A94B000026
:1054500001670000C14B0000654F0000C4F8EC205C
:105460001BB10322294628469847029495E8030079
:1054700004F1F00386E8030093E8030085E80300E5
:1054800096E8030083E80300D4F8F830D4F8FC0071
:105490001749184A04930590C4F8F810C4F8FC2082
:1054A0001BB10322294628469847029495E8030039
:1054B00004F5807386E8030093E8030085E80300A1
:1054C00096E8030083E80300D4F80831D4F80C010F
:1054D00009490A4A04930590C4F80811C4F80C213C
:1054E0001BB1032229462846984707B0F0BD00BFEC
:1054F000D94B0000C14E0000F14B0000796A00005A
:10550000F0B590F85A7291B077B390F85B32D0F85A
:105510007C22D25C02B3561EF6B2D0F8805201361D
:105520000DF1FF3400234FF0100E0BE090F85B12EA
:105530001EFB013105EBC1010133097904F8011F9C
:10554000B34209D005EBC301002FEFD10133097934
:1055500004F8011FB342F5D100F5BC700023694681
:10556000FEF750FF11B0F0BDD0F878321A78D1E7CD
:1055700000F5BC70FFF73EB92DE9F0430446A9B031
:105580004022002118A808F04FFD94F86452D4F886
:10559000802294F865C22BB202EBC30696E80300A2
:1055A00004AF06AE654587E8030086E8030001D92D
:1055B0001AE02BB202EBC3039DF8141093F804E039
:1055C0009DF81C8071458CBF1946394603C9F045CA
:1055D00028BF334687E80300013593E80300EDB2A6
:1055E000654586E80300E4D994F85A52002D00F08E
:1055F000838094F85B32D4F87C12CE5C76B1751E51
:1056000002EBC31218AB53FA85F50DF15F01107967
:1056100001F8010F8D4202F10802F8D108AF3846B7
:10562000002104F017FE94F8642294F865329A423F
:1056300000F0DD809A499B4DDFF874820CA804F0DD
:1056400009FE9DF81430A5FB03294FEAD90909EB9F
:105650004901A3EB8103D9B208EB01110CA804F0B6
:10566000ABFEA9F103010CA804F0AAFE0CA910A836
:1056700004F004FE8C4910A804F0BEFE884981465F
:1056800014A804F0E7FD9DF81C30A5FB0325ED08E8
:1056900005EB4501A3EB8103D9B208EB011114A876
:1056A00004F08AFEE91E14A804F08AFE14A94846F4
:1056B00004F09AFE0146384604F03EFE14A804F0B9
:1056C00089FD10A804F086FD0CA804F083FD94F871
:1056D000653294F86402089902930025334618AAAB
:1056E0000190009504F5BC70FEF7B6FF384604F053
:1056F00071FD29B0BDE8F08304F5BC76304608AFF3
:10570000FFF7FAF82946384604F0A4FD94F864221D
:1057100094F865329A4200F096806149614DDFF855
:1057200090810CA804F096FD9DF81430A5FB032988
:105730004FEAD90909EB4901A3EB8103D9B208EB80
:1057400001110CA804F038FEA9F103010CA804F023
:1057500037FE0CA910A804F091FD534910A804F0DD
:105760004BFE4F49814614A804F074FD9DF81C308F
:10577000A5FB0325ED0805EB4501A3EB8103D9B299
:1057800008EB011114A804F017FEE91E14A804F098
:1057900017FE14A9484604F027FE0146384604F0D7
:1057A000CBFD14A804F016FD10A804F013FD0CA8FE
:1057B00004F010FD08993046FEF7A4FD3046FEF7D0
:1057C00067FD2046FFF79CFED4F8783294F86522F6
:1057D0001B7894F864123046FEF76AFD3046FFF7F6
:1057E0008FF8384604F0F6FC29B0BDE8F08314A821
:1057F0002E492C4D04F02EFD10A8294904F02AFD55
:105800009DF814302A49A5FB0325ED0805EB450258
:10581000A3EB8203DBB201EB031110A804F0CCFD73
:10582000E91E10A804F0CCFD10A914A804F0DCFDBA
:105830000146384604F080FD10A804F0CBFC14A803
:1058400004F0C8FC43E714A81849164D04F002FD03
:1058500010A8134904F0FEFC9DF814301449A5FB70
:105860000325ED0805EB4502A3EB8203DBB201EB58
:10587000031110A804F0A0FDE91E10A804F0A0FD7B
:1058800010A914A804F0B0FD0146384604F054FDF8
:1058900010A804F09FFC14A804F09CFC8AE700BF49
:1058A00094230100ABAAAAAA3C28010034280100D5
:1058B0005C37FF1F70B504460068D0F8703382B0C3
:1058C0006BB3D0F8743300F55A7098472068D0F85D
:1058D000403300250F268DF803508DF80260F3B198
:1058E000D0F844330DF102020DF1030100F54E70C2
:1058F000984722680B4B82F8645222681B6882F832
:105900006562206801930122019B80F86D5280F846
:105910006C22C0F87032FFF72FFE02B070BDFFF7A7
:105920001DF800BF803CFF1FF0B5374F85B000F277
:10593000472300F2572E3F1A4FF0FF354FF47A7687
:105940004FF0100CFC1813F8011F49B190F85B22BE
:105950001CFB02429642A8BF16469542B8BF1546A8
:105960007345EFD16B1C41D090F86412B14244D022
:10597000264AD0F8684213680193019B1B1BB3F5BC
:105980002F7F2CD913680293D0F84033029AC0F8C5
:105990006822F6B2EDB204468DF802608DF803502D
:1059A0001A4F7BB3D4F844330DF103020DF1020119
:1059B00004F54E7098473B680393039984F864623A
:1059C0000122002384F86552C4F8701284F86C2216
:1059D00084F86D322046FFF7CFFD05B0F0BDB5422B
:1059E000D0D190F865328B42F7D1CBE7B6F57A7F0C
:1059F000F3D090F86412B142BAD190F865329D426A
:105A0000B6D1EAE7FEF7AAFFB9FDFFFF803CFF1F12
:105A100070B5044600F5BC758CB02846FEF76CFFE7
:105A200094F85A329BBBD4F878321E781B4908A8E8
:105A300004F010FC0A22314604A804F051FC04A929
:105A400008A804F0D1FC0146684604F017FC04A83D
:105A500004F0C0FB08A804F0BDFB00992846FEF73F
:105A600051FC2846FEF714FC2046FFF749FD33465B
:105A700094F8652294F864122846FEF719FC28462B
:105A8000FEF73EFF684604F0A5FB0CB070BD94F82D
:105A90005B32D4F87C22D65CC8E700BF4428010002
:105AA000F0B5624B624AA9B0044693E80300D4F80B
:105AB000806294F865321B9204AA82E8030094F88D
:105AC0006452019306AB83E803000095304618A9A1
:105AD000584D1A95FFF798FA1A9B1BB118A9032283
